{
  "contractName": "FeralfileExhibitionV2",
  "abi": [
    {
      "inputs": [
        {
          "internalType": "string",
          "name": "name_",
          "type": "string"
        },
        {
          "internalType": "string",
          "name": "symbol_",
          "type": "string"
        },
        {
          "internalType": "uint256",
          "name": "maxEditionPerArtwork_",
          "type": "uint256"
        },
        {
          "internalType": "uint256",
          "name": "secondarySaleRoyaltyBPS_",
          "type": "uint256"
        },
        {
          "internalType": "address",
          "name": "royaltyPayoutAddress_",
          "type": "address"
        },
        {
          "internalType": "string",
          "name": "contractURI_",
          "type": "string"
        },
        {
          "internalType": "string",
          "name": "tokenBaseURI_",
          "type": "string"
        }
      ],
      "stateMutability": "nonpayable",
      "type": "constructor"
    },
    {
      "anonymous": false,
      "inputs": [
        {
          "indexed": true,
          "internalType": "address",
          "name": "owner",
          "type": "address"
        },
        {
          "indexed": true,
          "internalType": "address",
          "name": "approved",
          "type": "address"
        },
        {
          "indexed": true,
          "internalType": "uint256",
          "name": "tokenId",
          "type": "uint256"
        }
      ],
      "name": "Approval",
      "type": "event"
    },
    {
      "anonymous": false,
      "inputs": [
        {
          "indexed": true,
          "internalType": "address",
          "name": "owner",
          "type": "address"
        },
        {
          "indexed": true,
          "internalType": "address",
          "name": "operator",
          "type": "address"
        },
        {
          "indexed": false,
          "internalType": "bool",
          "name": "approved",
          "type": "bool"
        }
      ],
      "name": "ApprovalForAll",
      "type": "event"
    },
    {
      "anonymous": false,
      "inputs": [
        {
          "indexed": true,
          "internalType": "uint256",
          "name": "artworkID",
          "type": "uint256"
        }
      ],
      "name": "NewArtwork",
      "type": "event"
    },
    {
      "anonymous": false,
      "inputs": [
        {
          "indexed": true,
          "internalType": "address",
          "name": "owner",
          "type": "address"
        },
        {
          "indexed": true,
          "internalType": "uint256",
          "name": "artworkID",
          "type": "uint256"
        },
        {
          "indexed": true,
          "internalType": "uint256",
          "name": "editionID",
          "type": "uint256"
        }
      ],
      "name": "NewArtworkEdition",
      "type": "event"
    },
    {
      "anonymous": false,
      "inputs": [
        {
          "indexed": true,
          "internalType": "address",
          "name": "previousOwner",
          "type": "address"
        },
        {
          "indexed": true,
          "internalType": "address",
          "name": "newOwner",
          "type": "address"
        }
      ],
      "name": "OwnershipTransferred",
      "type": "event"
    },
    {
      "anonymous": false,
      "inputs": [
        {
          "indexed": true,
          "internalType": "address",
          "name": "from",
          "type": "address"
        },
        {
          "indexed": true,
          "internalType": "address",
          "name": "to",
          "type": "address"
        },
        {
          "indexed": true,
          "internalType": "uint256",
          "name": "tokenId",
          "type": "uint256"
        }
      ],
      "name": "Transfer",
      "type": "event"
    },
    {
      "inputs": [],
      "name": "MAX_ROYALITY_BPS",
      "outputs": [
        {
          "internalType": "uint256",
          "name": "",
          "type": "uint256"
        }
      ],
      "stateMutability": "view",
      "type": "function"
    },
    {
      "inputs": [
        {
          "internalType": "address",
          "name": "to",
          "type": "address"
        },
        {
          "internalType": "uint256",
          "name": "tokenId",
          "type": "uint256"
        }
      ],
      "name": "approve",
      "outputs": [],
      "stateMutability": "nonpayable",
      "type": "function"
    },
    {
      "inputs": [
        {
          "internalType": "uint256",
          "name": "",
          "type": "uint256"
        }
      ],
      "name": "artworkEditions",
      "outputs": [
        {
          "internalType": "uint256",
          "name": "editionID",
          "type": "uint256"
        },
        {
          "internalType": "string",
          "name": "ipfsCID",
          "type": "string"
        }
      ],
      "stateMutability": "view",
      "type": "function"
    },
    {
      "inputs": [
        {
          "internalType": "uint256",
          "name": "",
          "type": "uint256"
        }
      ],
      "name": "artworks",
      "outputs": [
        {
          "internalType": "string",
          "name": "title",
          "type": "string"
        },
        {
          "internalType": "string",
          "name": "artistName",
          "type": "string"
        },
        {
          "internalType": "string",
          "name": "fingerprint",
          "type": "string"
        },
        {
          "internalType": "uint256",
          "name": "editionSize",
          "type": "uint256"
        }
      ],
      "stateMutability": "view",
      "type": "function"
    },
    {
      "inputs": [
        {
          "internalType": "address",
          "name": "owner",
          "type": "address"
        }
      ],
      "name": "balanceOf",
      "outputs": [
        {
          "internalType": "uint256",
          "name": "",
          "type": "uint256"
        }
      ],
      "stateMutability": "view",
      "type": "function"
    },
    {
      "inputs": [
        {
          "internalType": "uint256",
          "name": "tokenId",
          "type": "uint256"
        }
      ],
      "name": "getApproved",
      "outputs": [
        {
          "internalType": "address",
          "name": "",
          "type": "address"
        }
      ],
      "stateMutability": "view",
      "type": "function"
    },
    {
      "inputs": [
        {
          "internalType": "address",
          "name": "owner",
          "type": "address"
        },
        {
          "internalType": "address",
          "name": "operator",
          "type": "address"
        }
      ],
      "name": "isApprovedForAll",
      "outputs": [
        {
          "internalType": "bool",
          "name": "",
          "type": "bool"
        }
      ],
      "stateMutability": "view",
      "type": "function"
    },
    {
      "inputs": [],
      "name": "maxEditionPerArtwork",
      "outputs": [
        {
          "internalType": "uint256",
          "name": "",
          "type": "uint256"
        }
      ],
      "stateMutability": "view",
      "type": "function"
    },
    {
      "inputs": [],
      "name": "name",
      "outputs": [
        {
          "internalType": "string",
          "name": "",
          "type": "string"
        }
      ],
      "stateMutability": "view",
      "type": "function"
    },
    {
      "inputs": [],
      "name": "owner",
      "outputs": [
        {
          "internalType": "address",
          "name": "",
          "type": "address"
        }
      ],
      "stateMutability": "view",
      "type": "function"
    },
    {
      "inputs": [
        {
          "internalType": "uint256",
          "name": "tokenId",
          "type": "uint256"
        }
      ],
      "name": "ownerOf",
      "outputs": [
        {
          "internalType": "address",
          "name": "",
          "type": "address"
        }
      ],
      "stateMutability": "view",
      "type": "function"
    },
    {
      "inputs": [],
      "name": "renounceOwnership",
      "outputs": [],
      "stateMutability": "nonpayable",
      "type": "function"
    },
    {
      "inputs": [],
      "name": "royaltyPayoutAddress",
      "outputs": [
        {
          "internalType": "address",
          "name": "",
          "type": "address"
        }
      ],
      "stateMutability": "view",
      "type": "function"
    },
    {
      "inputs": [
        {
          "internalType": "address",
          "name": "from",
          "type": "address"
        },
        {
          "internalType": "address",
          "name": "to",
          "type": "address"
        },
        {
          "internalType": "uint256",
          "name": "tokenId",
          "type": "uint256"
        }
      ],
      "name": "safeTransferFrom",
      "outputs": [],
      "stateMutability": "nonpayable",
      "type": "function"
    },
    {
      "inputs": [
        {
          "internalType": "address",
          "name": "from",
          "type": "address"
        },
        {
          "internalType": "address",
          "name": "to",
          "type": "address"
        },
        {
          "internalType": "uint256",
          "name": "tokenId",
          "type": "uint256"
        },
        {
          "internalType": "bytes",
          "name": "_data",
          "type": "bytes"
        }
      ],
      "name": "safeTransferFrom",
      "outputs": [],
      "stateMutability": "nonpayable",
      "type": "function"
    },
    {
      "inputs": [],
      "name": "secondarySaleRoyaltyBPS",
      "outputs": [
        {
          "internalType": "uint256",
          "name": "",
          "type": "uint256"
        }
      ],
      "stateMutability": "view",
      "type": "function"
    },
    {
      "inputs": [
        {
          "internalType": "address",
          "name": "operator",
          "type": "address"
        },
        {
          "internalType": "bool",
          "name": "approved",
          "type": "bool"
        }
      ],
      "name": "setApprovalForAll",
      "outputs": [],
      "stateMutability": "nonpayable",
      "type": "function"
    },
    {
      "inputs": [
        {
          "internalType": "address",
          "name": "_newTrustee",
          "type": "address"
        }
      ],
      "name": "setTrustee",
      "outputs": [],
      "stateMutability": "nonpayable",
      "type": "function"
    },
    {
      "inputs": [],
      "name": "symbol",
      "outputs": [
        {
          "internalType": "string",
          "name": "",
          "type": "string"
        }
      ],
      "stateMutability": "view",
      "type": "function"
    },
    {
      "inputs": [
        {
          "internalType": "uint256",
          "name": "index",
          "type": "uint256"
        }
      ],
      "name": "tokenByIndex",
      "outputs": [
        {
          "internalType": "uint256",
          "name": "",
          "type": "uint256"
        }
      ],
      "stateMutability": "view",
      "type": "function"
    },
    {
      "inputs": [
        {
          "internalType": "address",
          "name": "owner",
          "type": "address"
        },
        {
          "internalType": "uint256",
          "name": "index",
          "type": "uint256"
        }
      ],
      "name": "tokenOfOwnerByIndex",
      "outputs": [
        {
          "internalType": "uint256",
          "name": "",
          "type": "uint256"
        }
      ],
      "stateMutability": "view",
      "type": "function"
    },
    {
      "inputs": [],
      "name": "totalSupply",
      "outputs": [
        {
          "internalType": "uint256",
          "name": "",
          "type": "uint256"
        }
      ],
      "stateMutability": "view",
      "type": "function"
    },
    {
      "inputs": [
        {
          "internalType": "address",
          "name": "from",
          "type": "address"
        },
        {
          "internalType": "address",
          "name": "to",
          "type": "address"
        },
        {
          "internalType": "uint256",
          "name": "tokenId",
          "type": "uint256"
        }
      ],
      "name": "transferFrom",
      "outputs": [],
      "stateMutability": "nonpayable",
      "type": "function"
    },
    {
      "inputs": [
        {
          "internalType": "address",
          "name": "newOwner",
          "type": "address"
        }
      ],
      "name": "transferOwnership",
      "outputs": [],
      "stateMutability": "nonpayable",
      "type": "function"
    },
    {
      "inputs": [],
      "name": "trustee",
      "outputs": [
        {
          "internalType": "address",
          "name": "",
          "type": "address"
        }
      ],
      "stateMutability": "view",
      "type": "function"
    },
    {
      "inputs": [
        {
          "internalType": "bytes4",
          "name": "interfaceId",
          "type": "bytes4"
        }
      ],
      "name": "supportsInterface",
      "outputs": [
        {
          "internalType": "bool",
          "name": "",
          "type": "bool"
        }
      ],
      "stateMutability": "view",
      "type": "function"
    },
    {
      "inputs": [
        {
          "internalType": "string",
          "name": "fingerprint",
          "type": "string"
        },
        {
          "internalType": "string",
          "name": "title",
          "type": "string"
        },
        {
          "internalType": "string",
          "name": "artistName",
          "type": "string"
        },
        {
          "internalType": "uint256",
          "name": "editionSize",
          "type": "uint256"
        }
      ],
      "name": "createArtwork",
      "outputs": [],
      "stateMutability": "nonpayable",
      "type": "function"
    },
    {
      "inputs": [],
      "name": "totalArtworks",
      "outputs": [
        {
          "internalType": "uint256",
          "name": "",
          "type": "uint256"
        }
      ],
      "stateMutability": "view",
      "type": "function"
    },
    {
      "inputs": [
        {
          "internalType": "uint256",
          "name": "index",
          "type": "uint256"
        }
      ],
      "name": "getArtworkByIndex",
      "outputs": [
        {
          "internalType": "uint256",
          "name": "",
          "type": "uint256"
        }
      ],
      "stateMutability": "view",
      "type": "function"
    },
    {
      "inputs": [
        {
          "internalType": "uint256",
          "name": "artworkID",
          "type": "uint256"
        },
        {
          "internalType": "uint256",
          "name": "bitmarkID",
          "type": "uint256"
        },
        {
          "internalType": "uint256",
          "name": "editionNumber",
          "type": "uint256"
        },
        {
          "internalType": "address",
          "name": "owner",
          "type": "address"
        },
        {
          "internalType": "string",
          "name": "ipfsCID",
          "type": "string"
        }
      ],
      "name": "swapArtworkFromBitmark",
      "outputs": [],
      "stateMutability": "nonpayable",
      "type": "function"
    },
    {
      "inputs": [
        {
          "internalType": "uint256",
          "name": "tokenId",
          "type": "uint256"
        },
        {
          "internalType": "string",
          "name": "ipfsCID",
          "type": "string"
        }
      ],
      "name": "updateArtworkEditionIPFSCid",
      "outputs": [],
      "stateMutability": "nonpayable",
      "type": "function"
    },
    {
      "inputs": [
        {
          "internalType": "address",
          "name": "royaltyPayoutAddress_",
          "type": "address"
        }
      ],
      "name": "setRoyaltyPayoutAddress",
      "outputs": [],
      "stateMutability": "nonpayable",
      "type": "function"
    },
    {
      "inputs": [
        {
          "internalType": "uint256",
          "name": "artworkID",
          "type": "uint256"
        }
      ],
      "name": "totalEditionOfArtwork",
      "outputs": [
        {
          "internalType": "uint256",
          "name": "",
          "type": "uint256"
        }
      ],
      "stateMutability": "view",
      "type": "function"
    },
    {
      "inputs": [
        {
          "internalType": "uint256",
          "name": "artworkID",
          "type": "uint256"
        },
        {
          "internalType": "uint256",
          "name": "index",
          "type": "uint256"
        }
      ],
      "name": "getArtworkEditionByIndex",
      "outputs": [
        {
          "internalType": "uint256",
          "name": "",
          "type": "uint256"
        }
      ],
      "stateMutability": "view",
      "type": "function"
    },
    {
      "inputs": [
        {
          "internalType": "uint256",
          "name": "tokenId",
          "type": "uint256"
        }
      ],
      "name": "tokenURI",
      "outputs": [
        {
          "internalType": "string",
          "name": "",
          "type": "string"
        }
      ],
      "stateMutability": "view",
      "type": "function"
    },
    {
      "inputs": [
        {
          "internalType": "string",
          "name": "baseURI_",
          "type": "string"
        }
      ],
      "name": "setTokenBaseURI",
      "outputs": [],
      "stateMutability": "nonpayable",
      "type": "function"
    },
    {
      "inputs": [],
      "name": "contractURI",
      "outputs": [
        {
          "internalType": "string",
          "name": "",
          "type": "string"
        }
      ],
      "stateMutability": "view",
      "type": "function"
    },
    {
      "inputs": [
        {
          "internalType": "uint256",
          "name": "tokenId",
          "type": "uint256"
        },
        {
          "internalType": "uint256",
          "name": "salePrice",
          "type": "uint256"
        }
      ],
      "name": "royaltyInfo",
      "outputs": [
        {
          "internalType": "address",
          "name": "receiver",
          "type": "address"
        },
        {
          "internalType": "uint256",
          "name": "royaltyAmount",
          "type": "uint256"
        }
      ],
      "stateMutability": "view",
      "type": "function"
    }
  ],
  "bytecode": "0x60c06040523480156200001157600080fd5b506040516200326838038062003268833981016040819052620000349162000449565b8651879087906200004d906000906020850190620002b9565b50805162000063906001906020840190620002b9565b505050620000806200007a6200026360201b60201c565b62000267565b600b80546001600160a01b0319169055846200011b5760405162461bcd60e51b815260206004820152604960248201527f6d617845646974696f6e206f66206561636820617274776f726b20696e20616e60448201527f2065786869626974696f6e206e6565647320746f2062652067726561746572206064820152687468616e207a65726f60b81b608482015260a4015b60405180910390fd5b612710841115620001ad5760405162461bcd60e51b815260206004820152604f60248201527f726f79616c74792042505320666f72207365636f6e646172792073616c65732060448201527f63616e206e6f742062652067726561746572207468616e20746865206d61786960648201526e6d756d20726f79616c74792042505360881b608482015260a40162000112565b6001600160a01b038316620002055760405162461bcd60e51b815260206004820152601e60248201527f696e76616c696420726f79616c7479207061796f757420616464726573730000604482015260640162000112565b608085905260a0849052600c80546001600160a01b0319166001600160a01b03851617905581516200023f90600e906020850190620002b9565b5080516200025590600d906020840190620002b9565b505050505050505062000565565b3390565b600a80546001600160a01b038381166001600160a01b0319831681179093556040519116919082907f8be0079c531659141344cd1fd0a4f28419497f9722a3daafe3b4186f6b6457e090600090a35050565b828054620002c79062000528565b90600052602060002090601f016020900481019282620002eb576000855562000336565b82601f106200030657805160ff191683800117855562000336565b8280016001018555821562000336579182015b828111156200033657825182559160200191906001019062000319565b506200034492915062000348565b5090565b5b8082111562000344576000815560010162000349565b634e487b7160e01b600052604160045260246000fd5b600082601f8301126200038757600080fd5b81516001600160401b0380821115620003a457620003a46200035f565b604051601f8301601f19908116603f01168101908282118183101715620003cf57620003cf6200035f565b81604052838152602092508683858801011115620003ec57600080fd5b600091505b83821015620004105785820183015181830184015290820190620003f1565b83821115620004225760008385830101525b9695505050505050565b80516001600160a01b03811681146200044457600080fd5b919050565b600080600080600080600060e0888a0312156200046557600080fd5b87516001600160401b03808211156200047d57600080fd5b6200048b8b838c0162000375565b985060208a0151915080821115620004a257600080fd5b620004b08b838c0162000375565b975060408a0151965060608a01519550620004ce60808b016200042c565b945060a08a0151915080821115620004e557600080fd5b620004f38b838c0162000375565b935060c08a01519150808211156200050a57600080fd5b50620005198a828b0162000375565b91505092959891949750929550565b600181811c908216806200053d57607f821691505b602082108114156200055f57634e487b7160e01b600052602260045260246000fd5b50919050565b60805160a051612ccf620005996000396000818161048901526109610152600081816103bd0152610ba30152612ccf6000f3fe608060405234801561001057600080fd5b50600436106101c25760003560e01c806301ffc9a7146101c757806306fdde03146101ef578063081812fc14610204578063095ea7b31461022f5780630cfcb5f11461024457806318160ddd1461025757806323b872dd146102695780632a55205a1461027c5780632f745c59146102ae5780633afb021a146102c15780633f6805ba146102d457806342842e0e146102e757806345aeefde146102fa5780634b6026731461030d5780634f6ccce71461033057806362fe2131146103435780636352211e14610364578063641b18e91461037757806370a082311461038a578063715018a61461039d5780637f34c0dd146103a557806384ad61af146103b85780638da5cb5b146103df5780638ef79e91146103e757806395d89b41146103fa578063a22cb46514610402578063b488370314610415578063b88d4fde14610428578063c87b56dd1461043b578063d0d1ea701461044e578063e4a233e114610461578063e8a3d48514610469578063e985e9c514610471578063ea211d7c14610484578063ec9cbb44146104ab578063f2fde38b146104b4578063fdf97cb2146104c7578063fe2a3bf3146104da575b600080fd5b6101da6101d5366004612460565b6104fa565b60405190151581526020015b60405180910390f35b6101f7610525565b6040516101e691906124dc565b6102176102123660046124ef565b6105b7565b6040516001600160a01b0390911681526020016101e6565b61024261023d366004612524565b610644565b005b6102426102523660046125f9565b610755565b6008545b6040519081526020016101e6565b61024261027736600461263f565b6108a8565b61028f61028a36600461267b565b6108d9565b604080516001600160a01b0390931683526020830191909152016101e6565b61025b6102bc366004612524565b610999565b6102426102cf36600461269d565b610a2f565b600c54610217906001600160a01b031681565b6102426102f536600461263f565b610ded565b61024261030836600461272c565b610e08565b61032061031b3660046124ef565b610eba565b6040516101e69493929190612747565b61025b61033e3660046124ef565b61107a565b6103566103513660046124ef565b61110d565b6040516101e6929190612792565b6102176103723660046124ef565b6111b2565b61025b61038536600461267b565b611229565b61025b61039836600461272c565b611276565b6102426112fd565b6102426103b33660046127ab565b611338565b61025b7f000000000000000000000000000000000000000000000000000000000000000081565b61021761168c565b6102426103f5366004612815565b61169b565b6101f76116ec565b610242610410366004612849565b6116fb565b61025b6104233660046124ef565b6117bc565b610242610436366004612885565b611834565b6101f76104493660046124ef565b611866565b61024261045c36600461272c565b6119cd565b600f5461025b565b6101f7611a1e565b6101da61047f366004612900565b611a2d565b61025b7f000000000000000000000000000000000000000000000000000000000000000081565b61025b61271081565b6102426104c236600461272c565b611a5b565b600b54610217906001600160a01b031681565b61025b6104e83660046124ef565b60009081526012602052604090205490565b60006001600160e01b0319821663780e9d6360e01b148061051f575061051f82611afb565b92915050565b6060600080546105349061292a565b80601f01602080910402602001604051908101604052809291908181526020018280546105609061292a565b80156105ad5780601f10610582576101008083540402835291602001916105ad565b820191906000526020600020905b81548152906001019060200180831161059057829003601f168201915b5050505050905090565b60006105c282611b20565b6106285760405162461bcd60e51b815260206004820152602c60248201527f4552433732313a20617070726f76656420717565727920666f72206e6f6e657860448201526b34b9ba32b73a103a37b5b2b760a11b60648201526084015b60405180910390fd5b506000908152600460205260409020546001600160a01b031690565b600061064f826111b2565b9050806001600160a01b0316836001600160a01b031614156106bd5760405162461bcd60e51b815260206004820152602160248201527f4552433732313a20617070726f76616c20746f2063757272656e74206f776e656044820152603960f91b606482015260840161061f565b336001600160a01b03821614806106d957506106d98133611a2d565b6107465760405162461bcd60e51b815260206004820152603860248201527f4552433732313a20617070726f76652063616c6c6572206973206e6f74206f776044820152771b995c881b9bdc88185c1c1c9bdd995908199bdc88185b1b60421b606482015260840161061f565b6107508383611b3d565b505050565b600b546001600160a01b0316331480610786575061077161168c565b6001600160a01b0316336001600160a01b0316145b61078f57600080fd5b61079882611b20565b6107e35760405162461bcd60e51b815260206004820152601c60248201527b185c9d1ddbdc9ac819591a5d1a5bdb881a5cc81b9bdd08199bdd5b9960221b604482015260640161061f565b6014816040516107f39190612965565b9081526040519081900360200190205460ff16156108235760405162461bcd60e51b815260040161061f90612981565b600082815260116020526040908190209051601490610846906001840190612a4b565b908152604051908190036020018120805460ff1916905560019060149061086e908590612965565b90815260405160209181900382019020805460ff19169215159290921790915582516108a2916001840191908501906123b1565b50505050565b6108b23382611bab565b6108ce5760405162461bcd60e51b815260040161061f90612a57565b610750838383611c75565b6000806108e584611b20565b61094b5760405162461bcd60e51b815260206004820152603160248201527f455243323938313a20717565727920726f79616c747920696e666f20666f72206044820152703737b732bc34b9ba32b73a103a37b5b2b760791b606482015260840161061f565b600c546001600160a01b031691506127106109867f000000000000000000000000000000000000000000000000000000000000000085612abe565b6109909190612add565b90509250929050565b60006109a483611276565b8210610a065760405162461bcd60e51b815260206004820152602b60248201527f455243373231456e756d657261626c653a206f776e657220696e646578206f7560448201526a74206f6620626f756e647360a81b606482015260840161061f565b506001600160a01b03919091166000908152600660209081526040808320938352929052205490565b600b546001600160a01b0316331480610a605750610a4b61168c565b6001600160a01b0316336001600160a01b0316145b610a6957600080fd5b8251610ab05760405162461bcd60e51b81526020600482015260166024820152757469746c652063616e206e6f7420626520656d70747960501b604482015260640161061f565b8151610af85760405162461bcd60e51b81526020600482015260176024820152766172746973742063616e206e6f7420626520656d70747960481b604482015260640161061f565b8351610b455760405162461bcd60e51b815260206004820152601c60248201527b66696e6765727072696e742063616e206e6f7420626520656d70747960201b604482015260640161061f565b60008111610ba15760405162461bcd60e51b815260206004820152602360248201527f65646974696f6e2073697a65206e6565647320746f206265206174206c65617360448201526274203160e81b606482015260840161061f565b7f0000000000000000000000000000000000000000000000000000000000000000811115610c475760405162461bcd60e51b815260206004820152604760248201527f617274776f726b2065646974696f6e2073697a6520657863656564732074686560448201527f206d6178696d756d2065646974696f6e2073697a65206f66207468652065786860648201526634b134ba34b7b760c91b608482015260a40161061f565b600084604051602001610c5a91906124dc565b60408051601f198184030181529181528151602092830120600081815260109093529120600201805491925090610c909061292a565b159050610d035760405162461bcd60e51b815260206004820152603b60248201527f616e20617274776f726b2077697468207468652073616d652066696e6765727060448201527a1c9a5b9d081a185cc8185b1c9958591e481c9959da5cdd195c9959602a1b606482015260840161061f565b60408051608081018252868152602080820187905281830186905260608201859052600f8054600181019091557f8d1108e10bcb7c27dddfc02ed9d693a074039d026cf4ea4240b40f7d581ac80201849055600084815260108252929092208151805192938493610d7792849201906123b1565b506020828101518051610d9092600185019201906123b1565b5060408201518051610dac9160028401916020909101906123b1565b506060919091015160039091015560405182907f22350b25f1b72bb3621199a79abefeb4fcd77bb1e65638cd09350666e4db089190600090a2505050505050565b61075083838360405180602001604052806000815250611834565b600b546001600160a01b0316331480610e395750610e2461168c565b6001600160a01b0316336001600160a01b0316145b610e4257600080fd5b6001600160a01b038116610e985760405162461bcd60e51b815260206004820152601e60248201527f696e76616c696420726f79616c7479207061796f757420616464726573730000604482015260640161061f565b600c80546001600160a01b0319166001600160a01b0392909216919091179055565b601060205260009081526040902080548190610ed59061292a565b80601f0160208091040260200160405190810160405280929190818152602001828054610f019061292a565b8015610f4e5780601f10610f2357610100808354040283529160200191610f4e565b820191906000526020600020905b815481529060010190602001808311610f3157829003601f168201915b505050505090806001018054610f639061292a565b80601f0160208091040260200160405190810160405280929190818152602001828054610f8f9061292a565b8015610fdc5780601f10610fb157610100808354040283529160200191610fdc565b820191906000526020600020905b815481529060010190602001808311610fbf57829003601f168201915b505050505090806002018054610ff19061292a565b80601f016020809104026020016040519081016040528092919081815260200182805461101d9061292a565b801561106a5780601f1061103f5761010080835404028352916020019161106a565b820191906000526020600020905b81548152906001019060200180831161104d57829003601f168201915b5050505050908060030154905084565b600061108560085490565b82106110e85760405162461bcd60e51b815260206004820152602c60248201527f455243373231456e756d657261626c653a20676c6f62616c20696e646578206f60448201526b7574206f6620626f756e647360a01b606482015260840161061f565b600882815481106110fb576110fb612aff565b90600052602060002001549050919050565b6011602052600090815260409020805460018201805491929161112f9061292a565b80601f016020809104026020016040519081016040528092919081815260200182805461115b9061292a565b80156111a85780601f1061117d576101008083540402835291602001916111a8565b820191906000526020600020905b81548152906001019060200180831161118b57829003601f168201915b5050505050905082565b6000818152600260205260408120546001600160a01b03168061051f5760405162461bcd60e51b815260206004820152602960248201527f4552433732313a206f776e657220717565727920666f72206e6f6e657869737460448201526832b73a103a37b5b2b760b91b606482015260840161061f565b600082815260126020526040812054821061124357600080fd5b600083815260126020526040902080548390811061126357611263612aff565b9060005260206000200154905092915050565b60006001600160a01b0382166112e15760405162461bcd60e51b815260206004820152602a60248201527f4552433732313a2062616c616e636520717565727920666f7220746865207a65604482015269726f206164647265737360b01b606482015260840161061f565b506001600160a01b031660009081526003602052604090205490565b3361130661168c565b6001600160a01b03161461132c5760405162461bcd60e51b815260040161061f90612b15565b6113366000611e0e565b565b600b546001600160a01b0316331480611369575061135461168c565b6001600160a01b0316336001600160a01b0316145b61137257600080fd5b6000858152601060205260409020600301546113c75760405162461bcd60e51b8152602060048201526014602482015273185c9d1ddbdc9ac81a5cc81b9bdd08199bdd5b9960621b604482015260640161061f565b6000858152601060205260409020600301548311156114465760405162461bcd60e51b815260206004820152603560248201527f65646974696f6e206e756d62657220657863656564207468652065646974696f6044820152746e2073697a65206f662074686520617274776f726b60581b606482015260840161061f565b6001600160a01b0382166114945760405162461bcd60e51b8152602060048201526015602482015274696e76616c6964206f776e6572206164647265737360581b604482015260640161061f565b60008481526013602052604090205460ff16156114ef5760405162461bcd60e51b8152602060048201526019602482015278189a5d1b585c9ac81a59081a185cc81c9959da5cdd195c9959603a1b604482015260640161061f565b6014816040516114ff9190612965565b9081526040519081900360200190205460ff161561152f5760405162461bcd60e51b815260040161061f90612981565b600061153b8487612b4a565b600081815260116020526040902054909150156115945760405162461bcd60e51b81526020600482015260176024820152761d1a194819591a5d1a5bdb881a5cc8195e1a5cdd195b9d604a1b604482015260640161061f565b60408051808201825282815260208082018581526000858152601183529390932082518155925180519293849390926115d49260018501929101906123b1565b505050600087815260126020908152604080832080546001818101835591855283852001869055898452601390925291829020805460ff1916821790559051601490611621908690612965565b908152604051908190036020019020805491151560ff1990921691909117905561164b8483611e60565b8187856001600160a01b03167f4f21e8cd53f1df1da42ec94ba03f881c1185607b26e4dcb81941535157d73dd460405160405180910390a450505050505050565b600a546001600160a01b031690565b600b546001600160a01b03163314806116cc57506116b761168c565b6001600160a01b0316336001600160a01b0316145b6116d557600080fd5b80516116e890600d9060208401906123b1565b5050565b6060600180546105349061292a565b6001600160a01b0382163314156117505760405162461bcd60e51b815260206004820152601960248201527822a9219b99189d1030b8383937bb32903a379031b0b63632b960391b604482015260640161061f565b3360008181526005602090815260408083206001600160a01b03871680855290835292819020805460ff191686151590811790915590519081529192917f17307eab39ab6107e8899845ad3d59bd9653f200f220920489ca2b5937696c31910160405180910390a35050565b60006117c7600f5490565b82106118215760405162461bcd60e51b8152602060048201526024808201527f617274776f726b733a20676c6f62616c20696e646578206f7574206f6620626f604482015263756e647360e01b606482015260840161061f565b600f82815481106110fb576110fb612aff565b61183e3383611bab565b61185a5760405162461bcd60e51b815260040161061f90612a57565b6108a284848484611e7a565b606061187182611b20565b6118d55760405162461bcd60e51b815260206004820152602f60248201527f4552433732314d657461646174613a2055524920717565727920666f72206e6f60448201526e3732bc34b9ba32b73a103a37b5b2b760891b606482015260840161061f565b6000600d80546118e49061292a565b80601f01602080910402602001604051908101604052809291908181526020018280546119109061292a565b801561195d5780601f106119325761010080835404028352916020019161195d565b820191906000526020600020905b81548152906001019060200180831161194057829003601f168201915b5050505050905080516000141561198e5750604080518082019091526007815266697066733a2f2f60c81b60208201525b80601160008581526020019081526020016000206001016040516020016119b6929190612b62565b604051602081830303815290604052915050919050565b336119d661168c565b6001600160a01b0316146119fc5760405162461bcd60e51b815260040161061f90612b15565b600b80546001600160a01b0319166001600160a01b0392909216919091179055565b6060600e80546105349061292a565b6001600160a01b03918216600090815260056020908152604080832093909416825291909152205460ff1690565b33611a6461168c565b6001600160a01b031614611a8a5760405162461bcd60e51b815260040161061f90612b15565b6001600160a01b038116611aef5760405162461bcd60e51b815260206004820152602660248201527f4f776e61626c653a206e6577206f776e657220697320746865207a65726f206160448201526564647265737360d01b606482015260840161061f565b611af881611e0e565b50565b60006001600160e01b0319821663780e9d6360e01b148061051f575061051f82611ead565b6000908152600260205260409020546001600160a01b0316151590565b600081815260046020526040902080546001600160a01b0319166001600160a01b0384169081179091558190611b72826111b2565b6001600160a01b03167f8c5be1e5ebec7d5bd14f71427d1e84f3dd0314c0f7b2291e5b200ac8c7c3b92560405160405180910390a45050565b6000611bb682611b20565b611c175760405162461bcd60e51b815260206004820152602c60248201527f4552433732313a206f70657261746f7220717565727920666f72206e6f6e657860448201526b34b9ba32b73a103a37b5b2b760a11b606482015260840161061f565b6000611c22836111b2565b9050806001600160a01b0316846001600160a01b03161480611c5d5750836001600160a01b0316611c52846105b7565b6001600160a01b0316145b80611c6d5750611c6d8185611a2d565b949350505050565b826001600160a01b0316611c88826111b2565b6001600160a01b031614611cf05760405162461bcd60e51b815260206004820152602960248201527f4552433732313a207472616e73666572206f6620746f6b656e2074686174206960448201526839903737ba1037bbb760b91b606482015260840161061f565b6001600160a01b038216611d525760405162461bcd60e51b8152602060048201526024808201527f4552433732313a207472616e7366657220746f20746865207a65726f206164646044820152637265737360e01b606482015260840161061f565b611d5d838383611efd565b611d68600082611b3d565b6001600160a01b0383166000908152600360205260408120805460019290611d91908490612ba0565b90915550506001600160a01b0382166000908152600360205260408120805460019290611dbf908490612b4a565b909155505060008181526002602052604080822080546001600160a01b0319166001600160a01b038681169182179092559151849391871691600080516020612c7a83398151915291a4505050565b600a80546001600160a01b038381166001600160a01b0319831681179093556040519116919082907f8be0079c531659141344cd1fd0a4f28419497f9722a3daafe3b4186f6b6457e090600090a35050565b6116e8828260405180602001604052806000815250611fb5565b611e85848484611c75565b611e9184848484611fe8565b6108a25760405162461bcd60e51b815260040161061f90612bb7565b60006001600160e01b031982166380ac58cd60e01b1480611ede57506001600160e01b03198216635b5e139f60e01b145b8061051f57506301ffc9a760e01b6001600160e01b031983161461051f565b6001600160a01b038316611f5857611f5381600880546000838152600960205260408120829055600182018355919091527ff3f7a9fe364faab93b216da50a3214154f22a0a2b415b23a84c8169e8b636ee30155565b611f7b565b816001600160a01b0316836001600160a01b031614611f7b57611f7b83826120f5565b6001600160a01b038216611f925761075081612192565b826001600160a01b0316826001600160a01b031614610750576107508282612241565b611fbf8383612285565b611fcc6000848484611fe8565b6107505760405162461bcd60e51b815260040161061f90612bb7565b60006001600160a01b0384163b156120ea57604051630a85bd0160e11b81526001600160a01b0385169063150b7a029061202c903390899088908890600401612c09565b602060405180830381600087803b15801561204657600080fd5b505af1925050508015612076575060408051601f3d908101601f1916820190925261207391810190612c46565b60015b6120d0573d8080156120a4576040519150601f19603f3d011682016040523d82523d6000602084013e6120a9565b606091505b5080516120c85760405162461bcd60e51b815260040161061f90612bb7565b805181602001fd5b6001600160e01b031916630a85bd0160e11b149050611c6d565b506001949350505050565b6000600161210284611276565b61210c9190612ba0565b60008381526007602052604090205490915080821461215f576001600160a01b03841660009081526006602090815260408083208584528252808320548484528184208190558352600790915290208190555b5060009182526007602090815260408084208490556001600160a01b039094168352600681528383209183525290812055565b6008546000906121a490600190612ba0565b600083815260096020526040812054600880549394509092849081106121cc576121cc612aff565b9060005260206000200154905080600883815481106121ed576121ed612aff565b600091825260208083209091019290925582815260099091526040808220849055858252812055600880548061222557612225612c63565b6001900381819060005260206000200160009055905550505050565b600061224c83611276565b6001600160a01b039093166000908152600660209081526040808320868452825280832085905593825260079052919091209190915550565b6001600160a01b0382166122db5760405162461bcd60e51b815260206004820181905260248201527f4552433732313a206d696e7420746f20746865207a65726f2061646472657373604482015260640161061f565b6122e481611b20565b156123305760405162461bcd60e51b815260206004820152601c60248201527b115490cdcc8c4e881d1bdad95b88185b1c9958591e481b5a5b9d195960221b604482015260640161061f565b61233c60008383611efd565b6001600160a01b0382166000908152600360205260408120805460019290612365908490612b4a565b909155505060008181526002602052604080822080546001600160a01b0319166001600160a01b0386169081179091559051839290600080516020612c7a833981519152908290a45050565b8280546123bd9061292a565b90600052602060002090601f0160209004810192826123df5760008555612425565b82601f106123f857805160ff1916838001178555612425565b82800160010185558215612425579182015b8281111561242557825182559160200191906001019061240a565b50612431929150612435565b5090565b5b808211156124315760008155600101612436565b6001600160e01b031981168114611af857600080fd5b60006020828403121561247257600080fd5b813561247d8161244a565b9392505050565b60005b8381101561249f578181015183820152602001612487565b838111156108a25750506000910152565b600081518084526124c8816020860160208601612484565b601f01601f19169290920160200192915050565b60208152600061247d60208301846124b0565b60006020828403121561250157600080fd5b5035919050565b80356001600160a01b038116811461251f57600080fd5b919050565b6000806040838503121561253757600080fd5b61254083612508565b946020939093013593505050565b634e487b7160e01b600052604160045260246000fd5b60006001600160401b038084111561257e5761257e61254e565b604051601f8501601f19908116603f011681019082821181831017156125a6576125a661254e565b816040528093508581528686860111156125bf57600080fd5b858560208301376000602087830101525050509392505050565b600082601f8301126125ea57600080fd5b61247d83833560208501612564565b6000806040838503121561260c57600080fd5b8235915060208301356001600160401b0381111561262957600080fd5b612635858286016125d9565b9150509250929050565b60008060006060848603121561265457600080fd5b61265d84612508565b925061266b60208501612508565b9150604084013590509250925092565b6000806040838503121561268e57600080fd5b50508035926020909101359150565b600080600080608085870312156126b357600080fd5b84356001600160401b03808211156126ca57600080fd5b6126d6888389016125d9565b955060208701359150808211156126ec57600080fd5b6126f8888389016125d9565b9450604087013591508082111561270e57600080fd5b5061271b878288016125d9565b949793965093946060013593505050565b60006020828403121561273e57600080fd5b61247d82612508565b60808152600061275a60808301876124b0565b828103602084015261276c81876124b0565b9050828103604084015261278081866124b0565b91505082606083015295945050505050565b828152604060208201526000611c6d60408301846124b0565b600080600080600060a086880312156127c357600080fd5b8535945060208601359350604086013592506127e160608701612508565b915060808601356001600160401b038111156127fc57600080fd5b612808888289016125d9565b9150509295509295909350565b60006020828403121561282757600080fd5b81356001600160401b0381111561283d57600080fd5b611c6d848285016125d9565b6000806040838503121561285c57600080fd5b61286583612508565b91506020830135801515811461287a57600080fd5b809150509250929050565b6000806000806080858703121561289b57600080fd5b6128a485612508565b93506128b260208601612508565b92506040850135915060608501356001600160401b038111156128d457600080fd5b8501601f810187136128e557600080fd5b6128f487823560208401612564565b91505092959194509250565b6000806040838503121561291357600080fd5b61291c83612508565b915061099060208401612508565b600181811c9082168061293e57607f821691505b6020821081141561295f57634e487b7160e01b600052602260045260246000fd5b50919050565b60008251612977818460208701612484565b9190910192915050565b6020808252601690820152751a5c199cc81a59081a185cc81c9959da5cdd195c995960521b604082015260600190565b8054600090600181811c90808316806129cb57607f831692505b60208084108214156129ed57634e487b7160e01b600052602260045260246000fd5b818015612a015760018114612a1257612a3f565b60ff19861689528489019650612a3f565b60008881526020902060005b86811015612a375781548b820152908501908301612a1e565b505084890196505b50505050505092915050565b600061247d82846129b1565b60208082526031908201527f4552433732313a207472616e736665722063616c6c6572206973206e6f74206f6040820152701ddb995c881b9bdc88185c1c1c9bdd9959607a1b606082015260800190565b634e487b7160e01b600052601160045260246000fd5b6000816000190483118215151615612ad857612ad8612aa8565b500290565b600082612afa57634e487b7160e01b600052601260045260246000fd5b500490565b634e487b7160e01b600052603260045260246000fd5b6020808252818101527f4f776e61626c653a2063616c6c6572206973206e6f7420746865206f776e6572604082015260600190565b60008219821115612b5d57612b5d612aa8565b500190565b60008351612b74818460208801612484565b612b80818401856129b1565b6d17b6b2ba30b230ba30973539b7b760911b8152600e0195945050505050565b600082821015612bb257612bb2612aa8565b500390565b60208082526032908201527f4552433732313a207472616e7366657220746f206e6f6e20455243373231526560408201527131b2b4bb32b91034b6b83632b6b2b73a32b960711b606082015260800190565b6001600160a01b0385811682528416602082015260408101839052608060608201819052600090612c3c908301846124b0565b9695505050505050565b600060208284031215612c5857600080fd5b815161247d8161244a565b634e487b7160e01b600052603160045260246000fdfeddf252ad1be2c89b69c2b068fc378daa952ba7f163c4a11628f55a4df523b3efa2646970667358221220e304bb68124c1ff10ed141c6a198ea86d28142b7c74981db5a534655c620505764736f6c63430008090033",
  "immutableReferences": {
    "2831": [
      {
        "length": 32,
        "start": 957
      },
      {
        "length": 32,
        "start": 2979
      }
    ],
    "2833": [
      {
        "length": 32,
        "start": 1161
      },
      {
        "length": 32,
        "start": 2401
      }
    ]
  },
  "source": "// SPDX-License-Identifier: MIT\npragma solidity ^0.8.0;\n\nimport \"@openzeppelin/contracts/token/ERC721/extensions/ERC721Enumerable.sol\";\nimport \"@openzeppelin/contracts/interfaces/IERC2981.sol\";\n\nimport \"./Authorizable.sol\";\nimport \"@openzeppelin/contracts/utils/Strings.sol\";\n\ncontract FeralfileExhibitionV2 is ERC721Enumerable, Authorizable, IERC2981 {\n    using Strings for uint256;\n\n    // royalty payout address\n    address public royaltyPayoutAddress;\n\n    // The maximum limit of edition size for each exhibitions\n    uint256 public immutable maxEditionPerArtwork;\n\n    // the basis points of royalty payments for each secondary sales\n    uint256 public immutable secondarySaleRoyaltyBPS;\n\n    // the maximum basis points of royalty payments\n    uint256 public constant MAX_ROYALITY_BPS = 100_00;\n\n    // token base URI\n    string private _tokenBaseURI;\n\n    // contract URI\n    string private _contractURI;\n\n    /// @notice A structure for Feral File artwork\n    struct Artwork {\n        string title;\n        string artistName;\n        string fingerprint;\n        uint256 editionSize;\n    }\n\n    struct ArtworkEdition {\n        uint256 editionID;\n        string ipfsCID;\n    }\n\n    uint256[] private _allArtworks;\n    mapping(uint256 => Artwork) public artworks; // artworkID => Artwork\n    mapping(uint256 => ArtworkEdition) public artworkEditions; // artworkEditionID => ArtworkEdition\n    mapping(uint256 => uint256[]) internal allArtworkEditions; // artworkID => []ArtworkEditionID\n    mapping(uint256 => bool) internal registeredBitmarks; // bitmarkID => bool\n    mapping(string => bool) internal registeredIPFSCIDs; // ipfsCID => bool\n\n    constructor(\n        string memory name_,\n        string memory symbol_,\n        uint256 maxEditionPerArtwork_,\n        uint256 secondarySaleRoyaltyBPS_,\n        address royaltyPayoutAddress_,\n        string memory contractURI_,\n        string memory tokenBaseURI_\n    ) ERC721(name_, symbol_) {\n        require(\n            maxEditionPerArtwork_ > 0,\n            \"maxEdition of each artwork in an exhibition needs to be greater than zero\"\n        );\n        require(\n            secondarySaleRoyaltyBPS_ <= MAX_ROYALITY_BPS,\n            \"royalty BPS for secondary sales can not be greater than the maximum royalty BPS\"\n        );\n        require(\n            royaltyPayoutAddress_ != address(0),\n            \"invalid royalty payout address\"\n        );\n\n        maxEditionPerArtwork = maxEditionPerArtwork_;\n        secondarySaleRoyaltyBPS = secondarySaleRoyaltyBPS_;\n        royaltyPayoutAddress = royaltyPayoutAddress_;\n        _contractURI = contractURI_;\n        _tokenBaseURI = tokenBaseURI_;\n    }\n\n    function supportsInterface(bytes4 interfaceId)\n        public\n        view\n        virtual\n        override(ERC721Enumerable, IERC165)\n        returns (bool)\n    {\n        return\n            interfaceId == type(IERC721Enumerable).interfaceId ||\n            super.supportsInterface(interfaceId);\n    }\n\n    /// @notice Call to create an artwork in the exhibition\n    /// @param fingerprint - the fingerprint of an artwork\n    /// @param title - the title of an artwork\n    /// @param artistName - the artist of an artwork\n    /// @param editionSize - the maximum edition size of an artwork\n    function createArtwork(\n        string memory fingerprint,\n        string memory title,\n        string memory artistName,\n        uint256 editionSize\n    ) external onlyAuthorized {\n        require(bytes(title).length != 0, \"title can not be empty\");\n        require(bytes(artistName).length != 0, \"artist can not be empty\");\n        require(bytes(fingerprint).length != 0, \"fingerprint can not be empty\");\n        require(editionSize > 0, \"edition size needs to be at least 1\");\n        require(\n            editionSize <= maxEditionPerArtwork,\n            \"artwork edition size exceeds the maximum edition size of the exhibition\"\n        );\n\n        uint256 artworkID = uint256(keccak256(abi.encode(fingerprint)));\n\n        /// @notice make sure the artwork have not been registered\n        require(\n            bytes(artworks[artworkID].fingerprint).length == 0,\n            \"an artwork with the same fingerprint has already registered\"\n        );\n\n        Artwork memory artwork = Artwork(\n            fingerprint,\n            title,\n            artistName,\n            editionSize\n        );\n\n        _allArtworks.push(artworkID);\n        artworks[artworkID] = artwork;\n\n        emit NewArtwork(artworkID);\n    }\n\n    /// @notice Return a count of artworks registered in this exhibition\n    function totalArtworks() public view virtual returns (uint256) {\n        return _allArtworks.length;\n    }\n\n    /// @notice Return the token identifier for the `index`th artwork\n    function getArtworkByIndex(uint256 index)\n        public\n        view\n        virtual\n        returns (uint256)\n    {\n        require(\n            index < totalArtworks(),\n            \"artworks: global index out of bounds\"\n        );\n        return _allArtworks[index];\n    }\n\n    /// @notice Swap an existent artwork from bitmark to ERC721\n    /// @param artworkID - the artwork id where the new edition is referenced to\n    /// @param bitmarkID - the bitmark id of artwork edition before swapped\n    /// @param editionNumber - the edition number of the artwork edition\n    /// @param owner - the owner address of the new minted token\n    /// @param ipfsCID - the IPFS cid for the new token\n    function swapArtworkFromBitmark(\n        uint256 artworkID,\n        uint256 bitmarkID,\n        uint256 editionNumber,\n        address owner,\n        string memory ipfsCID\n    ) external onlyAuthorized {\n        /// @notice the edition size is not set implies the artwork is not created\n        require(artworks[artworkID].editionSize > 0, \"artwork is not found\");\n        /// @notice The range of editionNumber should be between 0 (AP) ~ artwork.editionSize\n        require(\n            editionNumber <= artworks[artworkID].editionSize,\n            \"edition number exceed the edition size of the artwork\"\n        );\n        require(owner != address(0), \"invalid owner address\");\n        require(!registeredBitmarks[bitmarkID], \"bitmark id has registered\");\n        require(!registeredIPFSCIDs[ipfsCID], \"ipfs id has registered\");\n\n        uint256 editionID = artworkID + editionNumber;\n        require(\n            artworkEditions[editionID].editionID == 0,\n            \"the edition is existent\"\n        );\n\n        ArtworkEdition memory edition = ArtworkEdition(editionID, ipfsCID);\n\n        artworkEditions[editionID] = edition;\n        allArtworkEditions[artworkID].push(editionID);\n\n        registeredBitmarks[bitmarkID] = true;\n        registeredIPFSCIDs[ipfsCID] = true;\n\n        _safeMint(owner, editionID);\n        emit NewArtworkEdition(owner, artworkID, editionID);\n    }\n\n    /// @notice Update the IPFS cid of an edition to a new value\n    function updateArtworkEditionIPFSCid(uint256 tokenId, string memory ipfsCID)\n        external\n        onlyAuthorized\n    {\n        require(_exists(tokenId), \"artwork edition is not found\");\n        require(!registeredIPFSCIDs[ipfsCID], \"ipfs id has registered\");\n\n        ArtworkEdition storage edition = artworkEditions[tokenId];\n        delete registeredIPFSCIDs[edition.ipfsCID];\n        registeredIPFSCIDs[ipfsCID] = true;\n        edition.ipfsCID = ipfsCID;\n    }\n\n    /// @notice setRoyaltyPayoutAddress assigns a payout address so\n    //          that we can split the royalty.\n    /// @param royaltyPayoutAddress_ - the new royalty payout address\n    function setRoyaltyPayoutAddress(address royaltyPayoutAddress_)\n        external\n        onlyAuthorized\n    {\n        require(\n            royaltyPayoutAddress_ != address(0),\n            \"invalid royalty payout address\"\n        );\n        royaltyPayoutAddress = royaltyPayoutAddress_;\n    }\n\n    /// @notice Return the edition counts for an artwork\n    function totalEditionOfArtwork(uint256 artworkID)\n        public\n        view\n        returns (uint256)\n    {\n        return allArtworkEditions[artworkID].length;\n    }\n\n    /// @notice Return the edition id of an artwork by index\n    function getArtworkEditionByIndex(uint256 artworkID, uint256 index)\n        public\n        view\n        returns (uint256)\n    {\n        require(index < totalEditionOfArtwork(artworkID));\n        return allArtworkEditions[artworkID][index];\n    }\n\n    /// @notice A distinct Uniform Resource Identifier (URI) for a given asset.\n    function tokenURI(uint256 tokenId)\n        public\n        view\n        virtual\n        override\n        returns (string memory)\n    {\n        require(\n            _exists(tokenId),\n            \"ERC721Metadata: URI query for nonexistent token\"\n        );\n\n        string memory baseURI = _tokenBaseURI;\n        if (bytes(baseURI).length == 0) {\n            baseURI = \"ipfs://\";\n        }\n\n        return\n            string(\n                abi.encodePacked(\n                    baseURI,\n                    artworkEditions[tokenId].ipfsCID,\n                    \"/metadata.json\"\n                )\n            );\n    }\n\n    /// @notice Update the base URI for all tokens\n    function setTokenBaseURI(string memory baseURI_) external onlyAuthorized {\n        _tokenBaseURI = baseURI_;\n    }\n\n    /// @notice A URL for the opensea storefront-level metadata\n    function contractURI() public view returns (string memory) {\n        return _contractURI;\n    }\n\n    /// @notice Called with the sale price to determine how much royalty\n    //          is owed and to whom.\n    /// @param tokenId - the NFT asset queried for royalty information\n    /// @param salePrice - the sale price of the NFT asset specified by tokenId\n    /// @return receiver - address of who should be sent the royalty payment\n    /// @return royaltyAmount - the royalty payment amount for salePrice\n    function royaltyInfo(uint256 tokenId, uint256 salePrice)\n        external\n        view\n        override\n        returns (address receiver, uint256 royaltyAmount)\n    {\n        require(\n            _exists(tokenId),\n            \"ERC2981: query royalty info for nonexistent token\"\n        );\n\n        receiver = royaltyPayoutAddress;\n\n        royaltyAmount =\n            (salePrice * secondarySaleRoyaltyBPS) /\n            MAX_ROYALITY_BPS;\n    }\n\n    event NewArtwork(uint256 indexed artworkID);\n    event NewArtworkEdition(\n        address indexed owner,\n        uint256 indexed artworkID,\n        uint256 indexed editionID\n    );\n}\n",
  "sourcePath": "/Users/jimyeh/Code/bitmark-inc/feralfile-contract/contracts/FeralfileArtworkV2.sol",
  "compiler": {
    "name": "solc",
    "version": "0.8.9+commit.e5eed63a.Emscripten.clang"
  },
  "schemaVersion": "3.4.2",
  "updatedAt": "2021-12-08T08:06:19.208Z",
  "devdoc": {
    "kind": "dev",
    "methods": {
      "approve(address,uint256)": {
        "details": "See {IERC721-approve}."
      },
      "balanceOf(address)": {
        "details": "See {IERC721-balanceOf}."
      },
      "createArtwork(string,string,string,uint256)": {
        "params": {
          "artistName": "- the artist of an artwork",
          "editionSize": "- the maximum edition size of an artwork",
          "fingerprint": "- the fingerprint of an artwork",
          "title": "- the title of an artwork"
        }
      },
      "getApproved(uint256)": {
        "details": "See {IERC721-getApproved}."
      },
      "isApprovedForAll(address,address)": {
        "details": "See {IERC721-isApprovedForAll}."
      },
      "name()": {
        "details": "See {IERC721Metadata-name}."
      },
      "owner()": {
        "details": "Returns the address of the current owner."
      },
      "ownerOf(uint256)": {
        "details": "See {IERC721-ownerOf}."
      },
      "renounceOwnership()": {
        "details": "Leaves the contract without owner. It will not be possible to call `onlyOwner` functions anymore. Can only be called by the current owner. NOTE: Renouncing ownership will leave the contract without an owner, thereby removing any functionality that is only available to the owner."
      },
      "royaltyInfo(uint256,uint256)": {
        "params": {
          "salePrice": "- the sale price of the NFT asset specified by tokenId",
          "tokenId": "- the NFT asset queried for royalty information"
        },
        "returns": {
          "receiver": "- address of who should be sent the royalty payment",
          "royaltyAmount": "- the royalty payment amount for salePrice"
        }
      },
      "safeTransferFrom(address,address,uint256)": {
        "details": "See {IERC721-safeTransferFrom}."
      },
      "safeTransferFrom(address,address,uint256,bytes)": {
        "details": "See {IERC721-safeTransferFrom}."
      },
      "setApprovalForAll(address,bool)": {
        "details": "See {IERC721-setApprovalForAll}."
      },
      "setRoyaltyPayoutAddress(address)": {
        "params": {
          "royaltyPayoutAddress_": "- the new royalty payout address"
        }
      },
      "swapArtworkFromBitmark(uint256,uint256,uint256,address,string)": {
        "params": {
          "artworkID": "- the artwork id where the new edition is referenced to",
          "bitmarkID": "- the bitmark id of artwork edition before swapped",
          "editionNumber": "- the edition number of the artwork edition",
          "ipfsCID": "- the IPFS cid for the new token",
          "owner": "- the owner address of the new minted token"
        }
      },
      "symbol()": {
        "details": "See {IERC721Metadata-symbol}."
      },
      "tokenByIndex(uint256)": {
        "details": "See {IERC721Enumerable-tokenByIndex}."
      },
      "tokenOfOwnerByIndex(address,uint256)": {
        "details": "See {IERC721Enumerable-tokenOfOwnerByIndex}."
      },
      "totalSupply()": {
        "details": "See {IERC721Enumerable-totalSupply}."
      },
      "transferFrom(address,address,uint256)": {
        "details": "See {IERC721-transferFrom}."
      },
      "transferOwnership(address)": {
        "details": "Transfers ownership of the contract to a new account (`newOwner`). Can only be called by the current owner."
      }
    },
    "version": 1
  },
  "userdoc": {
    "kind": "user",
    "methods": {
      "contractURI()": {
        "notice": "A URL for the opensea storefront-level metadata"
      },
      "createArtwork(string,string,string,uint256)": {
        "notice": "Call to create an artwork in the exhibition"
      },
      "getArtworkByIndex(uint256)": {
        "notice": "Return the token identifier for the `index`th artwork"
      },
      "getArtworkEditionByIndex(uint256,uint256)": {
        "notice": "Return the edition id of an artwork by index"
      },
      "setTokenBaseURI(string)": {
        "notice": "Update the base URI for all tokens"
      },
      "swapArtworkFromBitmark(uint256,uint256,uint256,address,string)": {
        "notice": "Swap an existent artwork from bitmark to ERC721"
      },
      "tokenURI(uint256)": {
        "notice": "A distinct Uniform Resource Identifier (URI) for a given asset."
      },
      "totalArtworks()": {
        "notice": "Return a count of artworks registered in this exhibition"
      },
      "totalEditionOfArtwork(uint256)": {
        "notice": "Return the edition counts for an artwork"
      },
      "updateArtworkEditionIPFSCid(uint256,string)": {
        "notice": "Update the IPFS cid of an edition to a new value"
      }
    },
    "version": 1
  }
}